:1000000005C11FC11EC11DC11CC11BC11AC119C11F
:1000100018C117C116C115C114C113C112C111C134
:1000200010C10FC10EC1000000000000065F0600F5
:100030000703000703247E247E24242B6A12006316
:100040001308646336495620500007030000003E41
:1000500041000000413E0000083E1C3E0808083EEA
:10006000080800E060000008080808080060600058
:100070000020100804023E5149453E00427F4000E6
:10008000625149494622494949361814127F102FB6
:10009000494949313C4A494930017109050336490A
:1000A000494936064949291E006C6C000000EC6C79
:1000B0000000081422410024242424240041221496
:1000C0000802015909063E415D551E7E1111117E3F
:1000D0007F494949363E414141227F4141413E7F6E
:1000E000494949417F090909013E4149497A7F0847
:1000F00008087F00417F4100304040403F7F0814A6
:1001000022417F404040407F0204027F7F0204087A
:100110007F3E4141413E7F090909063E4151215E32
:100120007F09091966264949493201017F01013FCA
:100130004040403F1F2040201F3F403C403F631451
:1001400008146307087008076151494543007F415F
:10015000410002040810200041417F000402010216
:10016000048080808080000307000020545454786D
:100170007F444444383844444428384444447F3815
:1001800054545408087E09090018A4A4A47C7F04D0
:1001900004780000007D40004080847D007F1028AE
:1001A000440000007F40007C041804787C0404783C
:1001B000003844444438FC4444443838444444FC03
:1001C00044784404080854545420043E4424003C19
:1001D00040207C001C2040201C3C6030603C6C10A7
:1001E000106C009CA0603C006454544C00083E41DC
:1001F000410000007700000041413E080201020179
:10020000006364696E6F70737578580011241FBEA7
:10021000CFE5D4E0DEBFCDBF10E0A0E6B0E0E0EE79
:10022000FAE002C005900D92AC36B107D9F710E0A4
:10023000ACE6B0E001C01D92AD36B107E1F702D0E7
:100240004DC4DECEEF920F938FEF84BB3AD081E0A6
:1002500053D080E690E06AE54BE121E005D180E0F3
:1002600060E04AED2BE300E0EE24E39416D1FFCFEB
:10027000AB9AA99AAC98AC9A8AEA82BB11BAA898B0
:10028000AC98AC9AAC980000000080B3AC9AA89AE5
:100290009FEF91BB089582BBAA98AC98A998A89AA1
:1002A000A99AAC9AAA9A08959FEF91BBA898AA9888
:1002B000AC98A998A89AAA9A82BBA99AAC9AAA9A29
:1002C0000895AB98AB9A8FEF81BB8BEAE4DF82EAAB
:1002D000E2DF87EAE0DF88ECDEDF8CE7DCDF8FE25D
:1002E000DADF86E2D8DF81E8D6DF80EAD4DF8FEA82
:1002F000D2DF8EEED0DF0895FF920F931F939FEF12
:1003000091BB899FF02C112400EB802FC4DF80E18A
:10031000C2DF80E0C0DF10E08F2DC6DF1F5F103E20
:10032000D9F70F5F093B89F71F910F91FF9008954F
:10033000DF92EF92FF920F931F93D42E8B3DB8F56F
:100340006C33A8F5182F1F5F4FE0E42EE122262F13
:10035000269526952695822F90E033E0880F991FE9
:100360003A95E1F7681B81E090E002C0880F991F81
:100370006A95E2F7082F8FEF81BB80EBF82EF22A07
:100380008F2D89DF12951F701061812F84DF8E2DD4
:1003900082DF6EDFDD2011F0082701C0082B8F2DD2
:1003A0007ADF812F78DF8E2D76DF802F7DDF1F9122
:1003B0000F91FF90EF90DF9008958F929F92AF92F0
:1003C000BF92CF92DF92EF92FF920F931F93CF9342
:1003D000DF93E62E842E922E95E0899FC001112492
:1003E0008C010A5710405BE8A52E5FEFB52EA80ED2
:1003F000B91EF8018491F82CC0E0D0E0C82EDD24AD
:10040000992069F0C6010C2E02C0959587950A9433
:10041000E2F780FF11C08E2D6F2D492D0CC0C60153
:100420000C2E02C0959587950A94E2F780FD04C0D2
:100430008E2D6F2D40E07CDF2196F394C830D105DE
:10044000F9F60F5F1F4FE3940A151B0591F6DF9134
:10045000CF911F910F91FF90EF90DF90CF90BF90C1
:10046000AF909F908F900895FF920F931F93CF931B
:10047000DF93EC01162FF42E022F06C02196612F78
:100480004F2D202F9ADF1A5F88818823B9F7DF91DB
:10049000CF911F910F91FF900895AF92BF92CF928D
:1004A000DF92EF92FF920F931F93B82EC62ED42E99
:1004B000F22EA02E082F12C0AA2041F40B1531F005
:1004C0000D1521F01C1511F01F1521F4802F612F3F
:1004D0004E2D2EDF1F5FF11678F70F5FD01610F04C
:1004E0001C2DF9CF1F910F91FF90EF90DF90CF90CF
:1004F000BF90AF9008953F924F925F926F927F921C
:100500008F929F92AF92BF92CF92DF92EF92FF9223
:100510000F931F93CF93DF93F82E162F342EE22ED6
:10052000842F90E08F1991091816190624F0AA2437
:10053000AA94BA2C03C0F1E0AF2EB12C9C0197FF16
:1005400003C0309521953F4F8E2D90E0811B91097E
:100550001816190624F0CC24CA94DC2C03C0E1E060
:10056000CE2ED12C97FF03C0909581959F4F2C01E3
:10057000440C551C4901880C991C82179307CCF434
:10058000CC27DD27C21BD30B662477246818790893
:100590000DC08F2D612F402FCBDEC40DD51D1C1635
:1005A0001D061CF41C0DC60DD71DFA0CF31489F79B
:1005B00018C0CC27DD27C81BD90B66247724641804
:1005C00075080DC08F2D612F402FB2DEC80DD91DCB
:1005D0001C161D061CF4FA0CC60DD71D1C0D1E158D
:1005E00089F7DF91CF911F910F91FF90EF90DF90EE
:1005F000CF90BF90AF909F908F907F906F905F90C3
:100600004F903F900895FC0120FD08C023FD05C0D8
:1006100022FF02C073836283518340830895EF9267
:10062000FF920F931F9344FF02C033E011C046FFB7
:1006300002C034E00DC0DB01FC01AA0FBB1FEE1F9E
:10064000FF1F1094D1F76A0F7B1F8E1F9F1F31E091
:10065000660F771F881F991F3150D1F77B018C01DE
:10066000E20EF11C011D111DA8019701B701CA017D
:100670001F910F91FF90EF9008950F931F93CF93C9
:10068000DF938C01C801CBD1EC0197FD06C0B4D13A
:10069000892BC1F7CE01B80104D2CE01DF91CF91F1
:1006A0001F910F910895A0E0B0E0E8E5F3E075C177
:1006B000EC01C62E5A01122FB2D1AC018B3219F0C7
:1006C0008D3249F41068CA9409F466C0CE01A7D1EE
:1006D000AC0197FD61C06DEFD62ED1228D2D8073B8
:1006E000F1F44033E1F4CA9409F442C0CE0197D149
:1006F000AC0197FD3DC082E0D82A483711F048355B
:1007000051F480E4D82ACA9499F1CE0188D1AC0181
:1007100099232CF42DC0D6FC02C080E1D82AEE2407
:10072000FF248701242F2053283080F0D4FC09C0F7
:100730002A3060F0D6FE05C02F7D822F8151863091
:1007400020F0CA01BE01ADD110C02750C801B701C9
:100750004D2D65DF7B018C0182E0D82ACA9459F0C7
:10076000CE015DD1AC0197FFDDCFD1FC04C014C038
:10077000EE24FF248701D7FE08C010950095F09461
:10078000E094E11CF11C011D111DC501B801A70178
:100790002D2D39DF81E001C080E0CDB7DEB7EAE082
:1007A00018C1A0E0B0E0E6EDF3E0F3C05C016B013E
:1007B0003A01FC01178216828824CFC0812F90E075
:1007C0001BD1892B19F0C50158DFC7C0153249F478
:1007D000F601F3FC6591F3FE61916F01653259F406
:1007E00015E2C5011CD197FDC4C0181709F4B5C0A6
:1007F000B50157D1C3C06A3219F0162F00E006C008
:10080000F3FC1591F3FE11916F0101E099240EC0E4
:100810000260692D70E080E090E040E200DF962EFB
:10082000F601F3FC1591F3FE11916F01212F205376
:100830002A3070F301FD03C099249A9403C09920D3
:1008400009F49CC0183621F01C3691F4F6010AC058
:10085000F601F3FC6591F3FE6191683611F0162FF5
:1008600006C008600460F3FC1591F3FE11916F015E
:10087000112309F483C081E092E0612F70E0C4D0BD
:10088000892B09F47BC0802F00FF03C0EE24FF24D6
:1008900007C0F301E080F18022E030E0620E731EB9
:1008A0001E3649F4F5014681578160E070E0C701CA
:1008B000202FA9DE52C0133689F481FD02C099248D
:1008C0009394C501ACD097FD54C0E114F10419F024
:1008D000F70181937F019A94A1F73DC0C501CDDE58
:1008E00097FD47C01F3641F1103728F4143611F137
:1008F000193621F524C0133719F01537F9F41AC049
:10090000C5018DD0EC0197FD0FC076D0892B21F069
:10091000CE01B501C6D008C0E114F10419F0F70109
:10092000C1937F019A9461F7E114F104A1F0F701FA
:10093000108211C0006203C0006101C00064C501E3
:10094000692DA701202FAFDE882329F4F5018381CB
:10095000807379F413C000FF8394F501F380F601EE
:10096000F3FC1591F3FE11916F01112309F026CFCD
:1009700005C0882019F42FEF3FEF02C0282D30E08A
:10098000C901CDB7DEB7EEE020C02F923F924F9263
:100990005F926F927F928F929F92AF92BF92CF920F
:1009A000DF92EF92FF920F931F93CF93DF93CDB718
:1009B000DEB7CA1BDB0B0FB6F894DEBF0FBECDBF90
:1009C00009942A88398848885F846E847D848C8461
:1009D0009B84AA84B984C884DF80EE80FD800C816A
:1009E0001B81AA81B981CE0FD11D0FB6F894DEBF4D
:1009F0000FBECDBFED01089591116DC0803219F089
:100A000089508550D0F70895FC010590061621F015
:100A10000020D9F7C00108953197CF010895CF93F1
:100A2000DF93EC014B8140FF1AC046FF0AC04F7BA9
:100A30004B838E819F8101969F838E838A81282F8D
:100A40002BC042FF13C0E881F9818081282F332712
:100A500027FD30952115310529F440624B832FEF96
:100A60003FEF1BC03196F983E88311C0EA85FB850F
:100A7000CE0109959C0197FF0AC09B812F5F3F4FD4
:100A800011F080E201C080E1892B8B83E8CF8E8159
:100A90009F8101969F838E8330E0C901DF91CF91C2
:100AA00008959C01FB01838180FF11C086FD0FC06A
:100AB0009FEF2F3F390759F0228380648F7D838316
:100AC0008681978101979783868330E002C02FEF5C
:100AD0003FEFC9010895992788270895F894FFCF1B
:0C0AE0004D414349454A203A29000101DC
:00000001FF
